:020000040000FA
:060000000A128A11122809
:10000800FE00030EFA000408FB000A08FC00831235
:1000180003137F08FD000A128A11062B0A128A119F
:1000280015288313D730FD000430FE00E030FF00B0
:10003800A03084000A128A1112270A128A116E301F
:10004800FD000F30FE00F730FF00653084000A1213
:100058008A1112270A128A112030840046300A12A7
:100068008A15EF270A128A1183010A128A15E72FC7
:100078003C28FF0000308A007F08820742280A12C5
:100088008A11FD2F0A128A11A72C0A128A11332FFE
:10009800831203134108073E840083130008031DDD
:1000A80056285728F3280130FF007F089F0541088C
:1000B800023E84000008CF0002300310CF0DFF3E3F
:1000C800031D612803104F0DFF007F089F0441089E
:1000D800053E84000003031D72287328BA28D10145
:1000E800A92800300A128A11F6260A128A1102304B
:1000F80083120313C6000030C7001E08CF00D001CA
:100108004F08D000CF01831603131E088312031370
:100118004F07C8000030031801305007C9000A1201
:100128008A112F210A128A11831203134608FF002D
:100138004E0884007F08831380000130FF007F0889
:10014800CE070130FF007F08D1074108063E840032
:1001580000085102031CB128B22875280430FF009A
:1001680041080B3E84007F0880002D294108053E88
:1001780084000008031DC128C2282D2900300A1256
:100188008A11F6260A128A11023083120313C60056
:100198000030C7001E08CF00D0014F08D000CF01A3
:1001A800831603131E08831203134F07C800003079
:1001B800031801305007C9000A128A112F210A12A8
:1001C8008A11831203134608FF004E0884007F0833
:1001D800831380000130FF007F08CE072D294108D6
:1001E800073E84000003031DFA28FB282D29D201AD
:1001F80024294E08FF00400884007F088000013051
:10020800FF007F08CE070130FF007F089F055208D6
:10021800CF0002300310CF0DFF3E031D0E2903103F
:100228004F0DFF007F089F0400300A128A11F6263E
:100238000A128A110130FF007F0883120313D207C4
:10024800410A8400831300085202031C2C292D291B
:10025800FD280030080083120313CB01C71F35297E
:1002680036293D29C609C709C60A0319C70ACB0199
:10027800CB0AC91F402941294A29C809C909C80AFE
:100288000319C90A0130FF007F08CB06CC01CD0154
:10029800460847040319512952298929CA01CA0A5B
:1002A800602901300310C60DC70DFF3E031D5629F6
:1002B8000130FF007F08CA07C71F63296429552931
:1002C80001300310CC0DCD0DFF3E031D65294708F5
:1002D8004902031D712946084802031C742975291F
:1002E8007C294608C8024708031CC903C9024C14E4
:1002F80001300310C70CC60CFF3E031D7D290130D9
:10030800CA02031D8829892964294B0803198D29E4
:100318008E299329CC09CD09CC0A0319CD0A4D0899
:10032800C7004C08C6000800F501F11F9C299D294B
:10033800A429F009F109F00A0319F10AF501F50AEF
:10034800F31FA729A829B129F209F309F20A031909
:10035800F30A0130FF007F08F506F601F70170087F
:1003680071040319B829B929F029F401F40AC72935
:1003780001300310F00DF10DFF3E031DBD290130C2
:10038800FF007F08F407F11FCA29CB29BC290130D7
:100398000310F60DF70DFF3E031DCC2971087302FB
:1003A800031DD82970087202031CDB29DC29E32904
:1003B8007008F2027108031CF303F302761401308B
:1003C8000310F10CF00CFF3E031DE4290130F40288
:1003D800031DEF29F029CB2975080319F429F529FC
:1003E800FA29F609F709F60A0319F70A7708F10056
:1003F8007608F000080083120313CA00CB01462ACE
:100408003D304602031C092A0A2A5C2A4708840050
:1004180083138001CB01CB0A5C2A51304602031CAE
:10042800162A172A182A0A2A5130460203181D2AA2
:100438001E2A252A3C304602031C232A242A252A60
:100448005C2A4708840083138001800A0E2A6530DD
:100458004602031C302A312A322A0A2A653046020B
:100468000318372A382A252A50304602031C3D2A09
:100478003E2A252A5C2A643046020318442A452A63
:100488005C2A252A4A08C800C9014908003A031904
:100498004E2A5C2A4808003A0319042A403A0319EC
:1004A800112AC03A03192B2A403A03193F2A5C2A19
:1004B8004B080800FF1B682A83137F18831700085E
:1004C800840A0319FF0A080002308A000408840A13
:1004D800820700340A3444344534563445344C34A5
:1004E8004F3450344D3445344E3454345F344534ED
:1004F800523452344F34523400340A3449346E344E
:100508007334743461346E34633465344934643418
:100518003A3420343034783400340A344D346F346B
:10052800643475346C346534493464343A34203472
:100538003034783400340A344534723472346F34C9
:100548007234493464343A342034303478340034E2
:100558000A34413470346934493464343A342034C8
:1005680030347834003483120313CC004C08C700AD
:100578004707653E840083130008C800C90148087E
:10058800053ECA0049080318013E003ECB00460359
:10059800031DCF2AD02AE82A0130C7004C08C8001A
:1005A8004807663E8400000ADB2A0310C70DFF3E99
:1005B800031DD92A4708FF004A08840083174B1CEB
:1005C80083137F088004052B4608031DEC2AED2AB7
:1005D800052B0130C7004C08C8004807663E840058
:1005E800000AF82A0310C70DFF3E031DF62A470824
:1005F800FF3AFF004A08840083174B1C83137F08C7
:10060800800508000C1C092B0A2B102B26080A123F
:100618008A113D200A128A11831203130C1F152B0D
:10062800162B1C2B27080A128A113D200A128A1140
:10063800831203130C1E212B222B2B2B28080A12A2
:100648008A113D200A128A11831203130C128C1E80
:100658002E2B2F2B382B29080A128A113D200A121B
:100668008A11831203138C128B1C3B2B3C2B432BBC
:100678002A080A128A113D200A128A118B107D0855
:1006880083120313FF007C088A007B0884007A0E1B
:100698008300FE0E7E0E090083120313CA01CB01EC
:1006A800460847040319592B5A2B912BCC01CC0A25
:1006B800682B01300310C60DC70DFF3E031D5E2BCE
:1006C8000130FF007F08CC07C71F6B2B6C2B5D2BFD
:1006D80001300310CA0DCB0DFF3E031D6D2B4708DB
:1006E8004902031D792B46084802031C7C2B7D2BED
:1006F800842B4608C8024708031CC903C9024A14C8
:1007080001300310C70CC60CFF3E031D852B0130BA
:10071800CC02031D902B912B6C2B4B08C7004A0869
:10072800C60008008312031336189B2B9C2BCD2B75
:1007380037080319A02BA12BAB2B37030319A52BC3
:10074800A62BAB2B0A128A1171250A128A11831261
:10075800031337080319B12BB22BBC2B370303192A
:10076800B62BB72BBC2B0A128A1144250A128A1100
:100778008312031337080319C22BC32BCD2B37035E
:100788000319C72BC82BCD2B0A128A1117250A1259
:100798008A11831203133608013E0139FF007F08CE
:1007A800B6000A128A11FC270A128A11080083125D
:1007B8000313D60057300A128A117A270A128A11AF
:1007C800831203135708031DEA2BEB2BF02B560853
:1007D8008400831380011E2C57080319F42BF52B72
:1007E800032C413057020318FA2BFB2B032C403003
:1007F800FF00560884007F08831380001E2C4130B8
:100808005702031C082C092C172CC1305702031857
:100818000E2C0F2C172C8030FF00560884007F0800
:10082800831380001E2CC030FF00560884007F0808
:1008380083138000080083120313D60057300A126E
:100848008A11A2270A128A11831203135708031D5B
:100858002E2C2F2C342C5608840083138001622CF4
:1008680057080319382C392C472C413057020318E4
:100878003E2C3F2C472C4030FF00560884007F0850
:1008880083138000622C41305702031C4C2C4D2CE2
:100898005B2CC13057020318522C532C5B2C803030
:1008A800FF00560884007F0883138000622CC03044
:1008B800FF00560884007F08831380000800831215
:1008C8000313D60057300A128A11DE270A128A113A
:1008D800831203135708031D722C732C782C5608A7
:1008E800840083138001A62C570803197C2C7D2CC7
:1008F8008B2C413057020318822C832C8B2C4030D0
:10090800FF00560884007F0883138000A62C41301E
:100918005702031C902C912C9F2CC13057020318AE
:10092800962C972C9F2C8030FF00560884007F0857
:1009380083138000A62CC030FF00560884007F086F
:100948008313800008000230F0000030F1008312A9
:1009580003131E08F800F9017808F900F801831656
:1009680003131E087807F2000030031801307907D6
:10097800F3000A128A1198210A128A117008FF00DE
:1009880083120313400884008313000884007F083F
:1009980080000C134108073E84000003031DD52C7A
:1009A800D62CD82C1F15DF2C0330FF0041080B3E36
:1009B80084007F088000080000340034A0348634A6
:1009C8000134003408340034003400340134003475
:1009D8000034003403340034013402340034013468
:1009E800003401340134003400340034003400345D
:1009F80000340134003400340234003480342534A7
:100A0800003400340134003400340034003402343B
:100A1800063400340234073400340234033400341A
:100A28000234043400345B300A128A1170270A1227
:100A38008A115A300A128A11C0270A128A1183129F
:100A480003135A08FF007F08C6005C30FF007F08C8
:100A5800C7005B080A128A11FF210A128A11FF00D7
:100A68007F0883120313D900590803193C2D3D2D23
:100A7800432D5C080A128A1184270A128A11080079
:100A88005B300A128A1198270A128A115A300A1200
:100A98008A11C0270A128A11831203135A08FF0009
:100AA8007F08C6005C30FF007F08C7005B080A1299
:100AB8008A11FF210A128A11FF007F08831203138B
:100AC800D90059080319692D6A2D702D5C080A127E
:100AD8008A11AC270A128A1108005B300A128A119F
:100AE800D4270A128A115A300A128A11C0270A1208
:100AF8008A11831203135A08FF007F08C6005C306E
:100B0800FF007F08C7005B080A128A11FF210A123A
:100B18008A11FF007F0883120313D90059080319AB
:100B2800962D972D9D2D5C080A128A11E8270A1226
:100B38008A110800FF3083120313C800FF30C90070
:100B4800FF30CA00FF30CB004608CC004708CD0074
:100B58000030CD1BFF30CE00CF004C08C8074D0831
:100B680003184D0FB82DB92DC9074E0803184E0F9D
:100B7800BE2DBF2DCA074F0803184F0ACB07CB1F3E
:100B8800C62DC72D9E2D080083120313A001A101B5
:100B9800A201A301A401A501AF01B001B101003078
:100BA800E0000030DF000030DE000030DD00003003
:100BB800E4000030E3000030E2006430E10000307F
:100BC8000A128A1121270A128A11080083120313B4
:100BD800CE004F300A128A11CA270A128A116430CD
:100BE80083120313C6000030C7005008C9004F081D
:100BF800C8000A128A1150230A128A118312031399
:100C08004608FF004E0884007F0883138000080010
:100C18000A128A1142270A128A11831603139115A0
:100C280083128C1D182E192E142E8C110A128A115B
:100C380042270A128A11831203131308C700C80136
:100C480046088400470883138000840A4808800007
:100C58000030080083120313CA004B30FF007F08DE
:100C6800C60000300A128A110C260A128A11FF00E7
:100C78007F0883120313C9004908031D442E452E1B
:100C88004D2E4A0884004B0883138000840A4C08C0
:100C98008000080083120313D4004330FF007F084C
:100CA800CE0000300A128A114C200A128A11FF0065
:100CB8007F0883120313D3005308031D642E652E87
:100CC8006C2E4508FF00540884007F0883138000B9
:100CD800080083120313D4004330FF007F08CE00BE
:100CE80000300A128A114C200A128A11FF007F086C
:100CF80083120313D3005308031D832E842E8B2ED7
:100D08004408FF00540884007F088313800008000B
:100D180083120313D4004330FF007F08CE00003055
:100D28000A128A114C200A128A11FF007F088312C6
:100D38000313D3005308031DA22EA32EAA2E430883
:100D4800FF00540884007F08831380000800831282
:100D58000313CD004D08031DB22EB32EB92E0A126F
:100D68008A15DB270A128A11C32E4D03031DBD2ED7
:100D7800BE2EC32E0A128A15E1270A128A1108000C
:100D880083120313CD004D08031DCB2ECC2ED22E7B
:100D98000A128A15CF270A128A11DC2E4D03031D69
:100DA800D62ED72EDC2E0A128A15D5270A128A11BA
:100DB800080083120313CD004D08031DE42EE52E11
:100DC800EB2E0A128A15C3270A128A11F52E4D0333
:100DD800031DEF2EF02EF52E0A128A15C9270A12C6
:100DE8008A110800831203131F150230FF004108FF
:100DF8000B3E84007F08831380001F19042F052FE2
:100E0800012F0330FF0041080B3E84007F08831345
:100E1800800008007E088A007F0882000A128A1172
:100E28000E270A128A118000840A04087D06031915
:100E38000034FF0A0319FE0A122F0A128A11962398
:100E48000A128A11831203136208C7006108C600D8
:100E58000A128A119E250A128A11212F080083126C
:100E680003138C1E382F392F412F1A08FF0034081E
:100E780084007F08831380008C12080083160313F4
:100E88001419472F482F422F11081F39031D4D2FC2
:100E98004E2F422F080083120313C601C60A0230E0
:100EA8000A128A11B7220A128A1108008312031340
:100EB800C601C60A01300A128A11B7220A128A111B
:100EC800080083120313C601C60A00300A128A11E9
:100ED800B7220A128A11080083120313D80058088F
:100EE8000A128A11DB230A128A11080083120313DB
:100EF800D50055080A128A114E260A128A110800CE
:100F080083120313CE004E080A128A11AB260A1266
:100F18008A11080083120313C60102300A128A11CB
:100F2800B7220A128A11080083120313D80058083E
:100F38000A128A111F240A128A1108008312031345
:100F4800D50055080A128A116D260A128A1108005E
:100F580083120313CE004E080A128A11C4260A12FD
:100F68008A11080083120313C60101300A128A117C
:100F7800B7220A128A11080083120313D1005108FC
:100F88000A128A11EA250A128A1108008312031329
:100F9800CD004D080A128A112E260A128A1108005D
:100FA80083120313D80058080A128A1163240A12FC
:100FB8008A11080083120313D50055080A128A11F2
:100FC8008C260A128A11080083120313CE004E08D9
:100FD8000A128A11DD260A128A11080083120313E5
:100FE800C60100300A128A11B7220A128A110800B3
:040FF80008000800E5
:101F86000A128A1165270A128A1508000A128A118E
:101F9600F2270A128A1508000A128A115A270A120B
:101FA6008A1508000A128A11B6270A128A1508002D
:101FB6000A128A114F270A128A1508000A128A1174
:101FC6008E270A128A1508000A128A11C8250A12D3
:101FD6008A150A128A11122864008001840A0406EE
:101FE600031900340406F02F01340034013401349F
:0A1FF60001340234013401340134D7
:02400E007A3FF7
:00000001FF
